{
  "contractName": "Claim",
  "abi": [
    {
      "inputs": [
        {
          "internalType": "contract IERC20",
          "name": "token",
          "type": "address"
        }
      ],
      "stateMutability": "nonpayable",
      "type": "constructor"
    },
    {
      "anonymous": false,
      "inputs": [
        {
          "indexed": true,
          "internalType": "address",
          "name": "previousOwner",
          "type": "address"
        },
        {
          "indexed": true,
          "internalType": "address",
          "name": "newOwner",
          "type": "address"
        }
      ],
      "name": "OwnershipTransferred",
      "type": "event"
    },
    {
      "inputs": [
        {
          "internalType": "address",
          "name": "",
          "type": "address"
        }
      ],
      "name": "claimInfoByToken",
      "outputs": [
        {
          "internalType": "address",
          "name": "claimToken",
          "type": "address"
        },
        {
          "internalType": "uint256",
          "name": "claimAmount",
          "type": "uint256"
        },
        {
          "internalType": "bool",
          "name": "isClaim",
          "type": "bool"
        }
      ],
      "stateMutability": "view",
      "type": "function",
      "constant": true
    },
    {
      "inputs": [],
      "name": "owner",
      "outputs": [
        {
          "internalType": "address",
          "name": "",
          "type": "address"
        }
      ],
      "stateMutability": "view",
      "type": "function",
      "constant": true
    },
    {
      "inputs": [],
      "name": "renounceOwnership",
      "outputs": [],
      "stateMutability": "nonpayable",
      "type": "function"
    },
    {
      "inputs": [
        {
          "internalType": "address",
          "name": "newOwner",
          "type": "address"
        }
      ],
      "name": "transferOwnership",
      "outputs": [],
      "stateMutability": "nonpayable",
      "type": "function"
    },
    {
      "inputs": [],
      "name": "token",
      "outputs": [
        {
          "internalType": "contract IERC20",
          "name": "",
          "type": "address"
        }
      ],
      "stateMutability": "view",
      "type": "function",
      "constant": true
    },
    {
      "inputs": [
        {
          "internalType": "address",
          "name": "claimToken",
          "type": "address"
        },
        {
          "internalType": "uint256",
          "name": "claimAmount",
          "type": "uint256"
        }
      ],
      "name": "updateClaimAmount",
      "outputs": [],
      "stateMutability": "nonpayable",
      "type": "function"
    },
    {
      "inputs": [
        {
          "components": [
            {
              "internalType": "address",
              "name": "token",
              "type": "address"
            },
            {
              "internalType": "uint256",
              "name": "amount",
              "type": "uint256"
            }
          ],
          "internalType": "struct Claim.ReportInfo[]",
          "name": "list",
          "type": "tuple[]"
        }
      ],
      "name": "updateClaimList",
      "outputs": [],
      "stateMutability": "nonpayable",
      "type": "function"
    },
    {
      "inputs": [
        {
          "internalType": "address",
          "name": "claimToken",
          "type": "address"
        }
      ],
      "name": "claimByAdmin",
      "outputs": [],
      "stateMutability": "nonpayable",
      "type": "function"
    },
    {
      "inputs": [],
      "name": "claim",
      "outputs": [],
      "stateMutability": "nonpayable",
      "type": "function"
    },
    {
      "inputs": [
        {
          "internalType": "address",
          "name": "claimToken",
          "type": "address"
        }
      ],
      "name": "_claim",
      "outputs": [],
      "stateMutability": "nonpayable",
      "type": "function"
    },
    {
      "inputs": [
        {
          "internalType": "address payable",
          "name": "recipientToken",
          "type": "address"
        }
      ],
      "name": "killSelf",
      "outputs": [],
      "stateMutability": "nonpayable",
      "type": "function"
    }
  ],
  "bytecode": "0x60806040523480156200001157600080fd5b5060405162002046380380620020468339818101604052810190620000379190620001c1565b600062000049620001a260201b60201c565b9050806000806101000a81548173ffffffffffffffffffffffffffffffffffffffff021916908373ffffffffffffffffffffffffffffffffffffffff1602179055508073ffffffffffffffffffffffffffffffffffffffff16600073ffffffffffffffffffffffffffffffffffffffff167f8be0079c531659141344cd1fd0a4f28419497f9722a3daafe3b4186f6b6457e060405160405180910390a350600073ffffffffffffffffffffffffffffffffffffffff168173ffffffffffffffffffffffffffffffffffffffff1614156200015a576040517f08c379a000000000000000000000000000000000000000000000000000000000815260040162000151906200022f565b60405180910390fd5b80600160006101000a81548173ffffffffffffffffffffffffffffffffffffffff021916908373ffffffffffffffffffffffffffffffffffffffff16021790555050620002c4565b600033905090565b600081519050620001bb81620002aa565b92915050565b600060208284031215620001d457600080fd5b6000620001e484828501620001aa565b91505092915050565b6000620001fc60198362000251565b91507f746f6b656e20697320746865207a65726f2061646472657373000000000000006000830152602082019050919050565b600060208201905081810360008301526200024a81620001ed565b9050919050565b600082825260208201905092915050565b60006200026f826200028a565b9050919050565b6000620002838262000262565b9050919050565b600073ffffffffffffffffffffffffffffffffffffffff82169050919050565b620002b58162000276565b8114620002c157600080fd5b50565b611d7280620002d46000396000f3fe608060405234801561001057600080fd5b50600436106100a95760003560e01c806357ed1efe1161007157806357ed1efe14610128578063715018a6146101445780638da5cb5b1461014e578063d85a7b1a1461016c578063f2fde38b1461019e578063fc0c546a146101ba576100a9565b806338ed85b0146100ae5780633a507d7d146100ca5780633d194f33146100e65780634e71d92d146101025780634fc97cdf1461010c575b600080fd5b6100c860048036038101906100c3919061146f565b6101d8565b005b6100e460048036038101906100df9190611498565b610434565b005b61010060048036038101906100fb91906114fd565b6105de565b005b61010a610713565b005b6101266004803603810190610121919061146f565b61071e565b005b610142600480360381019061013d91906114c1565b6107bf565b005b61014c610aba565b005b610156610c0d565b604051610163919061197f565b60405180910390f35b6101866004803603810190610181919061146f565b610c36565b604051610195939291906119c3565b60405180910390f35b6101b860048036038101906101b3919061146f565b610c8d565b005b6101c2610e4f565b6040516101cf91906119fa565b60405180910390f35b600073ffffffffffffffffffffffffffffffffffffffff168173ffffffffffffffffffffffffffffffffffffffff161415610248576040517f08c379a000000000000000000000000000000000000000000000000000000000815260040161023f90611b17565b60405180910390fd5b6000600260008373ffffffffffffffffffffffffffffffffffffffff1673ffffffffffffffffffffffffffffffffffffffff1681526020019081526020016000209050600073ffffffffffffffffffffffffffffffffffffffff168160000160009054906101000a900473ffffffffffffffffffffffffffffffffffffffff1673ffffffffffffffffffffffffffffffffffffffff16141561031f576040517f08c379a000000000000000000000000000000000000000000000000000000000815260040161031690611a77565b60405180910390fd5b8060020160009054906101000a900460ff1615610371576040517f08c379a000000000000000000000000000000000000000000000000000000000815260040161036890611ab7565b60405180910390fd5b60008160010154116103b8576040517f08c379a00000000000000000000000000000000000000000000000000000000081526004016103af90611ad7565b60405180910390fd5b610409828260010154600160009054906101000a900473ffffffffffffffffffffffffffffffffffffffff1673ffffffffffffffffffffffffffffffffffffffff16610e799092919063ffffffff16565b6000816001018190555060018160020160006101000a81548160ff0219169083151502179055505050565b61043c610eff565b73ffffffffffffffffffffffffffffffffffffffff1660008054906101000a900473ffffffffffffffffffffffffffffffffffffffff1673ffffffffffffffffffffffffffffffffffffffff16146104c9576040517f08c379a00000000000000000000000000000000000000000000000000000000081526004016104c090611af7565b60405180910390fd5b6000600160009054906101000a900473ffffffffffffffffffffffffffffffffffffffff1673ffffffffffffffffffffffffffffffffffffffff166370a08231306040518263ffffffff1660e01b8152600401610526919061197f565b60206040518083038186803b15801561053e57600080fd5b505afa158015610552573d6000803e3d6000fd5b505050506040513d601f19601f820116820180604052508101906105769190611567565b90506105c58282600160009054906101000a900473ffffffffffffffffffffffffffffffffffffffff1673ffffffffffffffffffffffffffffffffffffffff16610e799092919063ffffffff16565b8173ffffffffffffffffffffffffffffffffffffffff16ff5b6105e6610eff565b73ffffffffffffffffffffffffffffffffffffffff1660008054906101000a900473ffffffffffffffffffffffffffffffffffffffff1673ffffffffffffffffffffffffffffffffffffffff1614610673576040517f08c379a000000000000000000000000000000000000000000000000000000000815260040161066a90611af7565b60405180910390fd5b60008151116106b7576040517f08c379a00000000000000000000000000000000000000000000000000000000081526004016106ae90611a37565b60405180910390fd5b60005b815181101561070f576106cb611307565b8282815181106106d757fe5b602002602001015190506000816020015111156107015761070081600001518260200151610f07565b5b5080806001019150506106ba565b5050565b61071c336101d8565b565b610726610eff565b73ffffffffffffffffffffffffffffffffffffffff1660008054906101000a900473ffffffffffffffffffffffffffffffffffffffff1673ffffffffffffffffffffffffffffffffffffffff16146107b3576040517f08c379a00000000000000000000000000000000000000000000000000000000081526004016107aa90611af7565b60405180910390fd5b6107bc816101d8565b50565b6107c7610eff565b73ffffffffffffffffffffffffffffffffffffffff1660008054906101000a900473ffffffffffffffffffffffffffffffffffffffff1673ffffffffffffffffffffffffffffffffffffffff1614610854576040517f08c379a000000000000000000000000000000000000000000000000000000000815260040161084b90611af7565b60405180910390fd5b600073ffffffffffffffffffffffffffffffffffffffff168273ffffffffffffffffffffffffffffffffffffffff1614156108c4576040517f08c379a00000000000000000000000000000000000000000000000000000000081526004016108bb90611b17565b60405180910390fd5b60008111610907576040517f08c379a00000000000000000000000000000000000000000000000000000000081526004016108fe90611b77565b60405180910390fd5b6000600260008473ffffffffffffffffffffffffffffffffffffffff1673ffffffffffffffffffffffffffffffffffffffff1681526020019081526020016000209050600073ffffffffffffffffffffffffffffffffffffffff168160000160009054906101000a900473ffffffffffffffffffffffffffffffffffffffff1673ffffffffffffffffffffffffffffffffffffffff16146109cd5781816001018190555060008160020160006101000a81548160ff021916908315150217905550610ab5565b60405180606001604052808473ffffffffffffffffffffffffffffffffffffffff16815260200183815260200160001515815250600260008573ffffffffffffffffffffffffffffffffffffffff1673ffffffffffffffffffffffffffffffffffffffff16815260200190815260200160002060008201518160000160006101000a81548173ffffffffffffffffffffffffffffffffffffffff021916908373ffffffffffffffffffffffffffffffffffffffff1602179055506020820151816001015560408201518160020160006101000a81548160ff0219169083151502179055509050505b505050565b610ac2610eff565b73ffffffffffffffffffffffffffffffffffffffff1660008054906101000a900473ffffffffffffffffffffffffffffffffffffffff1673ffffffffffffffffffffffffffffffffffffffff1614610b4f576040517f08c379a0000000000000000000000000000000000000000000000000000000008152600401610b4690611af7565b60405180910390fd5b600073ffffffffffffffffffffffffffffffffffffffff1660008054906101000a900473ffffffffffffffffffffffffffffffffffffffff1673ffffffffffffffffffffffffffffffffffffffff167f8be0079c531659141344cd1fd0a4f28419497f9722a3daafe3b4186f6b6457e060405160405180910390a360008060006101000a81548173ffffffffffffffffffffffffffffffffffffffff021916908373ffffffffffffffffffffffffffffffffffffffff160217905550565b60008060009054906101000a900473ffffffffffffffffffffffffffffffffffffffff16905090565b60026020528060005260406000206000915090508060000160009054906101000a900473ffffffffffffffffffffffffffffffffffffffff16908060010154908060020160009054906101000a900460ff16905083565b610c95610eff565b73ffffffffffffffffffffffffffffffffffffffff1660008054906101000a900473ffffffffffffffffffffffffffffffffffffffff1673ffffffffffffffffffffffffffffffffffffffff1614610d22576040517f08c379a0000000000000000000000000000000000000000000000000000000008152600401610d1990611af7565b60405180910390fd5b600073ffffffffffffffffffffffffffffffffffffffff168173ffffffffffffffffffffffffffffffffffffffff161415610d92576040517f08c379a0000000000000000000000000000000000000000000000000000000008152600401610d8990611a57565b60405180910390fd5b8073ffffffffffffffffffffffffffffffffffffffff1660008054906101000a900473ffffffffffffffffffffffffffffffffffffffff1673ffffffffffffffffffffffffffffffffffffffff167f8be0079c531659141344cd1fd0a4f28419497f9722a3daafe3b4186f6b6457e060405160405180910390a3806000806101000a81548173ffffffffffffffffffffffffffffffffffffffff021916908373ffffffffffffffffffffffffffffffffffffffff16021790555050565b6000600160009054906101000a900473ffffffffffffffffffffffffffffffffffffffff16905090565b610efa8363a9059cbb60e01b8484604051602401610e9892919061199a565b604051602081830303815290604052907bffffffffffffffffffffffffffffffffffffffffffffffffffffffff19166020820180517bffffffffffffffffffffffffffffffffffffffffffffffffffffffff8381831617835250505050611099565b505050565b600033905090565b6012600a0a810290506000600260008473ffffffffffffffffffffffffffffffffffffffff1673ffffffffffffffffffffffffffffffffffffffff1681526020019081526020016000209050600073ffffffffffffffffffffffffffffffffffffffff168160000160009054906101000a900473ffffffffffffffffffffffffffffffffffffffff1673ffffffffffffffffffffffffffffffffffffffff1614156110945760405180606001604052808473ffffffffffffffffffffffffffffffffffffffff16815260200183815260200160001515815250600260008573ffffffffffffffffffffffffffffffffffffffff1673ffffffffffffffffffffffffffffffffffffffff16815260200190815260200160002060008201518160000160006101000a81548173ffffffffffffffffffffffffffffffffffffffff021916908373ffffffffffffffffffffffffffffffffffffffff1602179055506020820151816001015560408201518160020160006101000a81548160ff0219169083151502179055509050505b505050565b60606110fb826040518060400160405280602081526020017f5361666545524332303a206c6f772d6c6576656c2063616c6c206661696c65648152508573ffffffffffffffffffffffffffffffffffffffff166111609092919063ffffffff16565b905060008151111561115b578080602001905181019061111b919061153e565b61115a576040517f08c379a000000000000000000000000000000000000000000000000000000000815260040161115190611b57565b60405180910390fd5b5b505050565b606061116f8484600085611178565b90509392505050565b6060824710156111bd576040517f08c379a00000000000000000000000000000000000000000000000000000000081526004016111b490611a97565b60405180910390fd5b6111c68561128d565b611205576040517f08c379a00000000000000000000000000000000000000000000000000000000081526004016111fc90611b37565b60405180910390fd5b600060608673ffffffffffffffffffffffffffffffffffffffff16858760405161122f9190611968565b60006040518083038185875af1925050503d806000811461126c576040519150601f19603f3d011682016040523d82523d6000602084013e611271565b606091505b50915091506112818282866112a0565b92505050949350505050565b600080823b905060008111915050919050565b606083156112b057829050611300565b6000835111156112c35782518084602001fd5b816040517f08c379a00000000000000000000000000000000000000000000000000000000081526004016112f79190611a15565b60405180910390fd5b9392505050565b6040518060400160405280600073ffffffffffffffffffffffffffffffffffffffff168152602001600081525090565b60008135905061134681611ce0565b92915050565b60008135905061135b81611cf7565b92915050565b600082601f83011261137257600080fd5b813561138561138082611bc4565b611b97565b915081818352602084019350602081019050838560408402820111156113aa57600080fd5b60005b838110156113da57816113c088826113f9565b8452602084019350604083019250506001810190506113ad565b5050505092915050565b6000815190506113f381611d0e565b92915050565b60006040828403121561140b57600080fd5b6114156040611b97565b9050600061142584828501611337565b600083015250602061143984828501611445565b60208301525092915050565b60008135905061145481611d25565b92915050565b60008151905061146981611d25565b92915050565b60006020828403121561148157600080fd5b600061148f84828501611337565b91505092915050565b6000602082840312156114aa57600080fd5b60006114b88482850161134c565b91505092915050565b600080604083850312156114d457600080fd5b60006114e285828601611337565b92505060206114f385828601611445565b9150509250929050565b60006020828403121561150f57600080fd5b600082013567ffffffffffffffff81111561152957600080fd5b61153584828501611361565b91505092915050565b60006020828403121561155057600080fd5b600061155e848285016113e4565b91505092915050565b60006020828403121561157957600080fd5b60006115878482850161145a565b91505092915050565b61159981611c1e565b82525050565b6115a881611c42565b82525050565b60006115b982611bec565b6115c38185611c02565b93506115d3818560208601611c9c565b80840191505092915050565b6115e881611c78565b82525050565b60006115f982611bf7565b6116038185611c0d565b9350611613818560208601611c9c565b61161c81611ccf565b840191505092915050565b6000611634601283611c0d565b91507f6c697374206172726179206973206e756c6c00000000000000000000000000006000830152602082019050919050565b6000611674602683611c0d565b91507f4f776e61626c653a206e6577206f776e657220697320746865207a65726f206160008301527f64647265737300000000000000000000000000000000000000000000000000006020830152604082019050919050565b60006116da600783611c0d565b91507f4e6f2044617461000000000000000000000000000000000000000000000000006000830152602082019050919050565b600061171a602683611c0d565b91507f416464726573733a20696e73756666696369656e742062616c616e636520666f60008301527f722063616c6c00000000000000000000000000000000000000000000000000006020830152604082019050919050565b6000611780600d83611c0d565b91507f416c726561647920436c61696d000000000000000000000000000000000000006000830152602082019050919050565b60006117c0601783611c0d565b91507f74686520636c61696d416d6f756e74206973207a65726f0000000000000000006000830152602082019050919050565b6000611800602083611c0d565b91507f4f776e61626c653a2063616c6c6572206973206e6f7420746865206f776e65726000830152602082019050919050565b6000611840601b83611c0d565b91507f636c61696d2066726f6d20746865207a65726f206164647265737300000000006000830152602082019050919050565b6000611880601d83611c0d565b91507f416464726573733a2063616c6c20746f206e6f6e2d636f6e74726163740000006000830152602082019050919050565b60006118c0602a83611c0d565b91507f5361666545524332303a204552433230206f7065726174696f6e20646964206e60008301527f6f742073756363656564000000000000000000000000000000000000000000006020830152604082019050919050565b6000611926601383611c0d565b91507f7468652062616c616e6365206973207a65726f000000000000000000000000006000830152602082019050919050565b61196281611c6e565b82525050565b600061197482846115ae565b915081905092915050565b60006020820190506119946000830184611590565b92915050565b60006040820190506119af6000830185611590565b6119bc6020830184611959565b9392505050565b60006060820190506119d86000830186611590565b6119e56020830185611959565b6119f2604083018461159f565b949350505050565b6000602082019050611a0f60008301846115df565b92915050565b60006020820190508181036000830152611a2f81846115ee565b905092915050565b60006020820190508181036000830152611a5081611627565b9050919050565b60006020820190508181036000830152611a7081611667565b9050919050565b60006020820190508181036000830152611a90816116cd565b9050919050565b60006020820190508181036000830152611ab08161170d565b9050919050565b60006020820190508181036000830152611ad081611773565b9050919050565b60006020820190508181036000830152611af0816117b3565b9050919050565b60006020820190508181036000830152611b10816117f3565b9050919050565b60006020820190508181036000830152611b3081611833565b9050919050565b60006020820190508181036000830152611b5081611873565b9050919050565b60006020820190508181036000830152611b70816118b3565b9050919050565b60006020820190508181036000830152611b9081611919565b9050919050565b6000604051905081810181811067ffffffffffffffff82111715611bba57600080fd5b8060405250919050565b600067ffffffffffffffff821115611bdb57600080fd5b602082029050602081019050919050565b600081519050919050565b600081519050919050565b600081905092915050565b600082825260208201905092915050565b6000611c2982611c4e565b9050919050565b6000611c3b82611c4e565b9050919050565b60008115159050919050565b600073ffffffffffffffffffffffffffffffffffffffff82169050919050565b6000819050919050565b6000611c8382611c8a565b9050919050565b6000611c9582611c4e565b9050919050565b60005b83811015611cba578082015181840152602081019050611c9f565b83811115611cc9576000848401525b50505050565b6000601f19601f8301169050919050565b611ce981611c1e565b8114611cf457600080fd5b50565b611d0081611c30565b8114611d0b57600080fd5b50565b611d1781611c42565b8114611d2257600080fd5b50565b611d2e81611c6e565b8114611d3957600080fd5b5056fea2646970667358221220ab74c0bdc49bc79e4b3999048bf60246c6ef13c04aac410f070edfe4f87c35a864736f6c634300060c0033",
  "immutableReferences": {},
  "source": "// SPDX-License-Identifier: MIT\r\n\r\npragma solidity >=0.6.12 < 0.7.5;\r\npragma experimental ABIEncoderV2;\r\n\r\nimport \"@openzeppelin/contracts/access/Ownable.sol\";\r\nimport \"@openzeppelin/contracts/token/ERC20/IERC20.sol\";\r\nimport \"@openzeppelin/contracts/token/ERC20/SafeERC20.sol\";\r\nimport \"@openzeppelin/contracts/math/SafeMath.sol\";\r\n\r\ncontract Claim is Ownable {\r\n    using SafeMath for uint256;\r\n    using SafeERC20 for IERC20;\r\n\r\n    IERC20 private _token;\r\n\r\n    struct ClaimInfo {\r\n        address claimToken;\r\n        uint claimAmount;\r\n        bool isClaim;\r\n    }\r\n\r\n    struct ReportInfo {\r\n        address token;\r\n        uint256 amount;\r\n    }\r\n\r\n    mapping(address => ClaimInfo) public claimInfoByToken;\r\n\r\n    constructor(IERC20 token) Ownable() public {\r\n        require(address(token) != address(0), \"token is the zero address\");\r\n        _token = token;\r\n    }\r\n\r\n    function token() public view returns (IERC20) {\r\n        return _token;\r\n    }\r\n\r\n    /**\r\n     * @dev upload account claimAmount\r\n     * @param claimToken the token of claim\r\n     * @param claimAmount the amount of update\r\n     */\r\n    function updateClaimAmount(address claimToken, uint256 claimAmount) public onlyOwner {\r\n        // Not is 0x address\r\n        require(claimToken != address(0), 'claim from the zero address');\r\n        // the claimAmount must be gt zero\r\n        require(claimAmount > 0, 'the balance is zero');\r\n\r\n        ClaimInfo storage info = claimInfoByToken[claimToken];\r\n        if (info.claimToken != address(0)) {\r\n            info.claimAmount = claimAmount;\r\n            info.isClaim = false;\r\n        } else {\r\n            claimInfoByToken[claimToken] = ClaimInfo(claimToken, claimAmount, false);\r\n        }\r\n    }\r\n\r\n    /**\r\n     * @dev upload report to update claim list data\r\n     * @param list upload data array\r\n     */\r\n    function updateClaimList(ReportInfo[] memory list) public onlyOwner {\r\n        require(list.length > 0, \"list array is null\");\r\n        for (uint i = 0; i < list.length; i++) {\r\n            ReportInfo memory reportInfo = list[i];\r\n            if (reportInfo.amount > 0) {\r\n                _addClaimTokens(reportInfo.token, reportInfo.amount);\r\n            }\r\n        }\r\n    }\r\n\r\n    /**\r\n     * @dev add claim list data\r\n     * @param claimToken the token of claim\r\n     * @param claimAmount the amount of update\r\n     */\r\n    function _addClaimTokens(address claimToken, uint256 claimAmount) internal {\r\n        claimAmount = claimAmount * (10**uint256(18));\r\n        ClaimInfo storage info = claimInfoByToken[claimToken];\r\n        if (info.claimToken == address(0)) {\r\n            claimInfoByToken[claimToken] = ClaimInfo(claimToken, claimAmount, false);\r\n        }\r\n    }\r\n\r\n    /**\r\n     * @dev admin claim\r\n     * @param claimToken the token of claim\r\n     */\r\n    function claimByAdmin(address claimToken) public onlyOwner {\r\n        _claim(claimToken);\r\n    }\r\n\r\n    /**\r\n     * @dev self claim\r\n     */\r\n    function claim() public {\r\n        _claim(msg.sender);\r\n    }\r\n\r\n    /**\r\n     * @dev common claim function\r\n     * @param claimToken the token of claim\r\n     */\r\n    function _claim(address claimToken) public {\r\n        // Not is 0x address\r\n        require(claimToken != address(0), 'claim from the zero address');\r\n        ClaimInfo storage info = claimInfoByToken[claimToken];\r\n        require(info.claimToken != address(0), 'No Data');\r\n        require(!info.isClaim, 'Already Claim');\r\n        // the balance must be gt zero\r\n        require(info.claimAmount > 0, 'the claimAmount is zero');\r\n\r\n        _token.safeTransfer(claimToken, info.claimAmount);\r\n        info.claimAmount = 0;\r\n        info.isClaim = true;\r\n    }\r\n\r\n    function killSelf(address payable recipientToken) public onlyOwner {\r\n        uint256 contractBalance = _token.balanceOf(address(this));\r\n        _token.safeTransfer(recipientToken, contractBalance);\r\n\r\n        selfdestruct(recipientToken);\r\n    }\r\n}\r\n",
  "sourcePath": "/home/blues/Workspaces/Daoswap/daoswap-tech/daoswap-claim/contracts/Claim.sol",
  "compiler": {
    "name": "solc",
    "version": "0.6.12+commit.27d51765.Emscripten.clang"
  },
  "schemaVersion": "3.3.3",
  "updatedAt": "2021-01-03T11:29:54.659Z",
  "networkType": "ethereum",
  "devdoc": {
    "kind": "dev",
    "methods": {
      "_claim(address)": {
        "details": "common claim function",
        "params": {
          "claimToken": "the token of claim"
        }
      },
      "claim()": {
        "details": "self claim"
      },
      "claimByAdmin(address)": {
        "details": "admin claim",
        "params": {
          "claimToken": "the token of claim"
        }
      },
      "owner()": {
        "details": "Returns the address of the current owner."
      },
      "renounceOwnership()": {
        "details": "Leaves the contract without owner. It will not be possible to call `onlyOwner` functions anymore. Can only be called by the current owner. NOTE: Renouncing ownership will leave the contract without an owner, thereby removing any functionality that is only available to the owner."
      },
      "transferOwnership(address)": {
        "details": "Transfers ownership of the contract to a new account (`newOwner`). Can only be called by the current owner."
      },
      "updateClaimAmount(address,uint256)": {
        "details": "upload account claimAmount",
        "params": {
          "claimAmount": "the amount of update",
          "claimToken": "the token of claim"
        }
      },
      "updateClaimList((address,uint256)[])": {
        "details": "upload report to update claim list data",
        "params": {
          "list": "upload data array"
        }
      }
    },
    "version": 1
  },
  "userdoc": {
    "kind": "user",
    "methods": {},
    "version": 1
  }
}