{
  "contractName": "Claim",
  "abi": [
    {
      "inputs": [
        {
          "internalType": "contract IERC20",
          "name": "token",
          "type": "address"
        },
        {
          "internalType": "uint256",
          "name": "amount",
          "type": "uint256"
        }
      ],
      "stateMutability": "nonpayable",
      "type": "constructor"
    },
    {
      "anonymous": false,
      "inputs": [
        {
          "indexed": true,
          "internalType": "address",
          "name": "previousOwner",
          "type": "address"
        },
        {
          "indexed": true,
          "internalType": "address",
          "name": "newOwner",
          "type": "address"
        }
      ],
      "name": "OwnershipTransferred",
      "type": "event"
    },
    {
      "inputs": [],
      "name": "claimAmount",
      "outputs": [
        {
          "internalType": "uint256",
          "name": "",
          "type": "uint256"
        }
      ],
      "stateMutability": "view",
      "type": "function",
      "constant": true
    },
    {
      "inputs": [
        {
          "internalType": "address",
          "name": "",
          "type": "address"
        }
      ],
      "name": "claimInfoByToken",
      "outputs": [
        {
          "internalType": "address",
          "name": "claimToken",
          "type": "address"
        },
        {
          "internalType": "uint256",
          "name": "claimAmount",
          "type": "uint256"
        }
      ],
      "stateMutability": "view",
      "type": "function",
      "constant": true
    },
    {
      "inputs": [],
      "name": "owner",
      "outputs": [
        {
          "internalType": "address",
          "name": "",
          "type": "address"
        }
      ],
      "stateMutability": "view",
      "type": "function",
      "constant": true
    },
    {
      "inputs": [],
      "name": "renounceOwnership",
      "outputs": [],
      "stateMutability": "nonpayable",
      "type": "function"
    },
    {
      "inputs": [
        {
          "internalType": "address",
          "name": "newOwner",
          "type": "address"
        }
      ],
      "name": "transferOwnership",
      "outputs": [],
      "stateMutability": "nonpayable",
      "type": "function"
    },
    {
      "inputs": [],
      "name": "token",
      "outputs": [
        {
          "internalType": "contract IERC20",
          "name": "",
          "type": "address"
        }
      ],
      "stateMutability": "view",
      "type": "function",
      "constant": true
    },
    {
      "inputs": [
        {
          "internalType": "uint256",
          "name": "amount",
          "type": "uint256"
        }
      ],
      "name": "updateClaimAmount",
      "outputs": [],
      "stateMutability": "nonpayable",
      "type": "function"
    },
    {
      "inputs": [
        {
          "internalType": "address",
          "name": "claimToken",
          "type": "address"
        }
      ],
      "name": "claimByAdmin",
      "outputs": [],
      "stateMutability": "nonpayable",
      "type": "function"
    },
    {
      "inputs": [],
      "name": "claim",
      "outputs": [],
      "stateMutability": "nonpayable",
      "type": "function"
    },
    {
      "inputs": [
        {
          "internalType": "address payable",
          "name": "recipientToken",
          "type": "address"
        }
      ],
      "name": "killSelf",
      "outputs": [],
      "stateMutability": "nonpayable",
      "type": "function"
    }
  ],
  "bytecode": "0x60806040523480156200001157600080fd5b5060405162001827380380620018278339818101604052810190620000379190620001e6565b600062000049620001b060201b60201c565b9050806000806101000a81548173ffffffffffffffffffffffffffffffffffffffff021916908373ffffffffffffffffffffffffffffffffffffffff1602179055508073ffffffffffffffffffffffffffffffffffffffff16600073ffffffffffffffffffffffffffffffffffffffff167f8be0079c531659141344cd1fd0a4f28419497f9722a3daafe3b4186f6b6457e060405160405180910390a350600073ffffffffffffffffffffffffffffffffffffffff168273ffffffffffffffffffffffffffffffffffffffff1614156200015a576040517f08c379a0000000000000000000000000000000000000000000000000000000008152600401620001519062000269565b60405180910390fd5b81600160006101000a81548173ffffffffffffffffffffffffffffffffffffffff021916908373ffffffffffffffffffffffffffffffffffffffff1602179055506012600a0a8102600281905550505062000322565b600033905090565b600081519050620001c981620002ee565b92915050565b600081519050620001e08162000308565b92915050565b60008060408385031215620001fa57600080fd5b60006200020a85828601620001b8565b92505060206200021d85828601620001cf565b9150509250929050565b6000620002366019836200028b565b91507f746f6b656e20697320746865207a65726f2061646472657373000000000000006000830152602082019050919050565b60006020820190508181036000830152620002848162000227565b9050919050565b600082825260208201905092915050565b6000620002a982620002c4565b9050919050565b6000620002bd826200029c565b9050919050565b600073ffffffffffffffffffffffffffffffffffffffff82169050919050565b6000819050919050565b620002f981620002b0565b81146200030557600080fd5b50565b6200031381620002e4565b81146200031f57600080fd5b50565b6114f580620003326000396000f3fe608060405234801561001057600080fd5b506004361061009e5760003560e01c80638da5cb5b116100665780638da5cb5b1461010d578063d85a7b1a1461012b578063dca8b0811461015c578063f2fde38b14610178578063fc0c546a146101945761009e565b80633a507d7d146100a35780634e71d92d146100bf5780634fc97cdf146100c9578063715018a6146100e5578063830953ab146100ef575b600080fd5b6100bd60048036038101906100b89190610e0f565b6101b2565b005b6100c761035c565b005b6100e360048036038101906100de9190610de6565b610367565b005b6100ed610408565b005b6100f761055b565b6040516101049190611354565b60405180910390f35b610115610561565b60405161012291906111d3565b60405180910390f35b61014560048036038101906101409190610de6565b61058a565b6040516101539291906111ee565b60405180910390f35b61017660048036038101906101719190610e61565b6105ce565b005b610192600480360381019061018d9190610de6565b610673565b005b61019c610835565b6040516101a99190611217565b60405180910390f35b6101ba61085f565b73ffffffffffffffffffffffffffffffffffffffff1660008054906101000a900473ffffffffffffffffffffffffffffffffffffffff1673ffffffffffffffffffffffffffffffffffffffff1614610247576040517f08c379a000000000000000000000000000000000000000000000000000000000815260040161023e906112d4565b60405180910390fd5b6000600160009054906101000a900473ffffffffffffffffffffffffffffffffffffffff1673ffffffffffffffffffffffffffffffffffffffff166370a08231306040518263ffffffff1660e01b81526004016102a491906111d3565b60206040518083038186803b1580156102bc57600080fd5b505afa1580156102d0573d6000803e3d6000fd5b505050506040513d601f19601f820116820180604052508101906102f49190610e8a565b90506103438282600160009054906101000a900473ffffffffffffffffffffffffffffffffffffffff1673ffffffffffffffffffffffffffffffffffffffff166108679092919063ffffffff16565b8173ffffffffffffffffffffffffffffffffffffffff16ff5b610365336108ed565b565b61036f61085f565b73ffffffffffffffffffffffffffffffffffffffff1660008054906101000a900473ffffffffffffffffffffffffffffffffffffffff1673ffffffffffffffffffffffffffffffffffffffff16146103fc576040517f08c379a00000000000000000000000000000000000000000000000000000000081526004016103f3906112d4565b60405180910390fd5b610405816108ed565b50565b61041061085f565b73ffffffffffffffffffffffffffffffffffffffff1660008054906101000a900473ffffffffffffffffffffffffffffffffffffffff1673ffffffffffffffffffffffffffffffffffffffff161461049d576040517f08c379a0000000000000000000000000000000000000000000000000000000008152600401610494906112d4565b60405180910390fd5b600073ffffffffffffffffffffffffffffffffffffffff1660008054906101000a900473ffffffffffffffffffffffffffffffffffffffff1673ffffffffffffffffffffffffffffffffffffffff167f8be0079c531659141344cd1fd0a4f28419497f9722a3daafe3b4186f6b6457e060405160405180910390a360008060006101000a81548173ffffffffffffffffffffffffffffffffffffffff021916908373ffffffffffffffffffffffffffffffffffffffff160217905550565b60025481565b60008060009054906101000a900473ffffffffffffffffffffffffffffffffffffffff16905090565b60036020528060005260406000206000915090508060000160009054906101000a900473ffffffffffffffffffffffffffffffffffffffff16908060010154905082565b6105d661085f565b73ffffffffffffffffffffffffffffffffffffffff1660008054906101000a900473ffffffffffffffffffffffffffffffffffffffff1673ffffffffffffffffffffffffffffffffffffffff1614610663576040517f08c379a000000000000000000000000000000000000000000000000000000000815260040161065a906112d4565b60405180910390fd5b6012600a0a810260028190555050565b61067b61085f565b73ffffffffffffffffffffffffffffffffffffffff1660008054906101000a900473ffffffffffffffffffffffffffffffffffffffff1673ffffffffffffffffffffffffffffffffffffffff1614610708576040517f08c379a00000000000000000000000000000000000000000000000000000000081526004016106ff906112d4565b60405180910390fd5b600073ffffffffffffffffffffffffffffffffffffffff168173ffffffffffffffffffffffffffffffffffffffff161415610778576040517f08c379a000000000000000000000000000000000000000000000000000000000815260040161076f90611254565b60405180910390fd5b8073ffffffffffffffffffffffffffffffffffffffff1660008054906101000a900473ffffffffffffffffffffffffffffffffffffffff1673ffffffffffffffffffffffffffffffffffffffff167f8be0079c531659141344cd1fd0a4f28419497f9722a3daafe3b4186f6b6457e060405160405180910390a3806000806101000a81548173ffffffffffffffffffffffffffffffffffffffff021916908373ffffffffffffffffffffffffffffffffffffffff16021790555050565b6000600160009054906101000a900473ffffffffffffffffffffffffffffffffffffffff16905090565b600033905090565b6108e88363a9059cbb60e01b84846040516024016108869291906111ee565b604051602081830303815290604052907bffffffffffffffffffffffffffffffffffffffffffffffffffffffff19166020820180517bffffffffffffffffffffffffffffffffffffffffffffffffffffffff8381831617835250505050610aba565b505050565b600073ffffffffffffffffffffffffffffffffffffffff168173ffffffffffffffffffffffffffffffffffffffff16141561095d576040517f08c379a0000000000000000000000000000000000000000000000000000000008152600401610954906112f4565b60405180910390fd5b6000600360008373ffffffffffffffffffffffffffffffffffffffff1673ffffffffffffffffffffffffffffffffffffffff1681526020019081526020016000209050600073ffffffffffffffffffffffffffffffffffffffff168160000160009054906101000a900473ffffffffffffffffffffffffffffffffffffffff1673ffffffffffffffffffffffffffffffffffffffff161415158015610a0757506000816001015411155b610a46576040517f08c379a0000000000000000000000000000000000000000000000000000000008152600401610a3d906112b4565b60405180910390fd5b610a9582600254600160009054906101000a900473ffffffffffffffffffffffffffffffffffffffff1673ffffffffffffffffffffffffffffffffffffffff166108679092919063ffffffff16565b610aae6002548260010154610b8190919063ffffffff16565b81600101819055505050565b6060610b1c826040518060400160405280602081526020017f5361666545524332303a206c6f772d6c6576656c2063616c6c206661696c65648152508573ffffffffffffffffffffffffffffffffffffffff16610bd69092919063ffffffff16565b9050600081511115610b7c5780806020019051810190610b3c9190610e38565b610b7b576040517f08c379a0000000000000000000000000000000000000000000000000000000008152600401610b7290611334565b60405180910390fd5b5b505050565b600080828401905083811015610bcc576040517f08c379a0000000000000000000000000000000000000000000000000000000008152600401610bc390611274565b60405180910390fd5b8091505092915050565b6060610be58484600085610bee565b90509392505050565b606082471015610c33576040517f08c379a0000000000000000000000000000000000000000000000000000000008152600401610c2a90611294565b60405180910390fd5b610c3c85610d03565b610c7b576040517f08c379a0000000000000000000000000000000000000000000000000000000008152600401610c7290611314565b60405180910390fd5b600060608673ffffffffffffffffffffffffffffffffffffffff168587604051610ca591906111bc565b60006040518083038185875af1925050503d8060008114610ce2576040519150601f19603f3d011682016040523d82523d6000602084013e610ce7565b606091505b5091509150610cf7828286610d16565b92505050949350505050565b600080823b905060008111915050919050565b60608315610d2657829050610d76565b600083511115610d395782518084602001fd5b816040517f08c379a0000000000000000000000000000000000000000000000000000000008152600401610d6d9190611232565b60405180910390fd5b9392505050565b600081359050610d8c81611463565b92915050565b600081359050610da18161147a565b92915050565b600081519050610db681611491565b92915050565b600081359050610dcb816114a8565b92915050565b600081519050610de0816114a8565b92915050565b600060208284031215610df857600080fd5b6000610e0684828501610d7d565b91505092915050565b600060208284031215610e2157600080fd5b6000610e2f84828501610d92565b91505092915050565b600060208284031215610e4a57600080fd5b6000610e5884828501610da7565b91505092915050565b600060208284031215610e7357600080fd5b6000610e8184828501610dbc565b91505092915050565b600060208284031215610e9c57600080fd5b6000610eaa84828501610dd1565b91505092915050565b610ebc816113a1565b82525050565b6000610ecd8261136f565b610ed78185611385565b9350610ee781856020860161141f565b80840191505092915050565b610efc816113fb565b82525050565b6000610f0d8261137a565b610f178185611390565b9350610f2781856020860161141f565b610f3081611452565b840191505092915050565b6000610f48602683611390565b91507f4f776e61626c653a206e6577206f776e657220697320746865207a65726f206160008301527f64647265737300000000000000000000000000000000000000000000000000006020830152604082019050919050565b6000610fae601b83611390565b91507f536166654d6174683a206164646974696f6e206f766572666c6f7700000000006000830152602082019050919050565b6000610fee602683611390565b91507f416464726573733a20696e73756666696369656e742062616c616e636520666f60008301527f722063616c6c00000000000000000000000000000000000000000000000000006020830152604082019050919050565b6000611054600d83611390565b91507f416c726561647920436c61696d000000000000000000000000000000000000006000830152602082019050919050565b6000611094602083611390565b91507f4f776e61626c653a2063616c6c6572206973206e6f7420746865206f776e65726000830152602082019050919050565b60006110d4601b83611390565b91507f636c61696d2066726f6d20746865207a65726f206164647265737300000000006000830152602082019050919050565b6000611114601d83611390565b91507f416464726573733a2063616c6c20746f206e6f6e2d636f6e74726163740000006000830152602082019050919050565b6000611154602a83611390565b91507f5361666545524332303a204552433230206f7065726174696f6e20646964206e60008301527f6f742073756363656564000000000000000000000000000000000000000000006020830152604082019050919050565b6111b6816113f1565b82525050565b60006111c88284610ec2565b915081905092915050565b60006020820190506111e86000830184610eb3565b92915050565b60006040820190506112036000830185610eb3565b61121060208301846111ad565b9392505050565b600060208201905061122c6000830184610ef3565b92915050565b6000602082019050818103600083015261124c8184610f02565b905092915050565b6000602082019050818103600083015261126d81610f3b565b9050919050565b6000602082019050818103600083015261128d81610fa1565b9050919050565b600060208201905081810360008301526112ad81610fe1565b9050919050565b600060208201905081810360008301526112cd81611047565b9050919050565b600060208201905081810360008301526112ed81611087565b9050919050565b6000602082019050818103600083015261130d816110c7565b9050919050565b6000602082019050818103600083015261132d81611107565b9050919050565b6000602082019050818103600083015261134d81611147565b9050919050565b600060208201905061136960008301846111ad565b92915050565b600081519050919050565b600081519050919050565b600081905092915050565b600082825260208201905092915050565b60006113ac826113d1565b9050919050565b60006113be826113d1565b9050919050565b60008115159050919050565b600073ffffffffffffffffffffffffffffffffffffffff82169050919050565b6000819050919050565b60006114068261140d565b9050919050565b6000611418826113d1565b9050919050565b60005b8381101561143d578082015181840152602081019050611422565b8381111561144c576000848401525b50505050565b6000601f19601f8301169050919050565b61146c816113a1565b811461147757600080fd5b50565b611483816113b3565b811461148e57600080fd5b50565b61149a816113c5565b81146114a557600080fd5b50565b6114b1816113f1565b81146114bc57600080fd5b5056fea26469706673582212203dc4575bedc89454587120fb2745b9591a12f8df6b33f0c125da518e56c9822964736f6c634300060c0033",
  "immutableReferences": {},
  "source": "// SPDX-License-Identifier: MIT\r\n\r\npragma solidity >=0.6.12 < 0.7.5;\r\npragma experimental ABIEncoderV2;\r\n\r\nimport \"@openzeppelin/contracts/access/Ownable.sol\";\r\nimport \"@openzeppelin/contracts/token/ERC20/IERC20.sol\";\r\nimport \"@openzeppelin/contracts/token/ERC20/SafeERC20.sol\";\r\nimport \"@openzeppelin/contracts/math/SafeMath.sol\";\r\n\r\ncontract Claim is Ownable {\r\n    using SafeMath for uint256;\r\n    using SafeERC20 for IERC20;\r\n\r\n    IERC20 private _token;\r\n\r\n    struct ClaimInfo {\r\n        address claimToken;\r\n        uint claimAmount;\r\n    }\r\n\r\n    uint256 public claimAmount;\r\n\r\n    mapping(address => ClaimInfo) public claimInfoByToken;\r\n\r\n    constructor(IERC20 token, uint256 amount) Ownable() public {\r\n        require(address(token) != address(0), \"token is the zero address\");\r\n        _token = token;\r\n        claimAmount = amount * (10**uint256(18));\r\n    }\r\n\r\n    function token() public view returns (IERC20) {\r\n        return _token;\r\n    }\r\n\r\n    /**\r\n     * @dev update claim amount\r\n     * @param amount the amount of claim\r\n     */\r\n    function updateClaimAmount(uint256 amount) public onlyOwner {\r\n        claimAmount = amount * (10**uint256(18));\r\n    }\r\n\r\n    /**\r\n     * @dev admin claim\r\n     * @param claimToken the token of claim\r\n     */\r\n    function claimByAdmin(address claimToken) public onlyOwner {\r\n        _claim(claimToken);\r\n    }\r\n\r\n    /**\r\n     * @dev self claim\r\n     */\r\n    function claim() public {\r\n        _claim(msg.sender);\r\n    }\r\n\r\n    /**\r\n     * @dev claim function\r\n     * @param claimToken the token of claim\r\n     */\r\n    function _claim(address claimToken) private {\r\n        require(claimToken != address(0), 'claim from the zero address');\r\n        ClaimInfo storage info = claimInfoByToken[claimToken];\r\n        require(!(info.claimToken != address(0)) && info.claimAmount <= 0, 'Already Claim');\r\n\r\n        _token.safeTransfer(claimToken, claimAmount);\r\n        info.claimAmount = info.claimAmount.add(claimAmount);\r\n    }\r\n\r\n    /**\r\n     * @dev killSelf function\r\n     * @param recipientToken Receiving token address\r\n     */\r\n    function killSelf(address payable recipientToken) public onlyOwner {\r\n        uint256 contractBalance = _token.balanceOf(address(this));\r\n        _token.safeTransfer(recipientToken, contractBalance);\r\n\r\n        selfdestruct(recipientToken);\r\n    }\r\n}\r\n",
  "sourcePath": "/home/blues/Workspaces/Daoswap/daoswap-tech/daoswap-claim/contracts/Claim.sol",
  "compiler": {
    "name": "solc",
    "version": "0.6.12+commit.27d51765.Emscripten.clang"
  },
  "schemaVersion": "3.3.3",
  "updatedAt": "2021-01-10T08:06:25.948Z",
  "networkType": "ethereum",
  "devdoc": {
    "kind": "dev",
    "methods": {
      "claim()": {
        "details": "self claim"
      },
      "claimByAdmin(address)": {
        "details": "admin claim",
        "params": {
          "claimToken": "the token of claim"
        }
      },
      "killSelf(address)": {
        "details": "killSelf function",
        "params": {
          "recipientToken": "Receiving token address"
        }
      },
      "owner()": {
        "details": "Returns the address of the current owner."
      },
      "renounceOwnership()": {
        "details": "Leaves the contract without owner. It will not be possible to call `onlyOwner` functions anymore. Can only be called by the current owner. NOTE: Renouncing ownership will leave the contract without an owner, thereby removing any functionality that is only available to the owner."
      },
      "transferOwnership(address)": {
        "details": "Transfers ownership of the contract to a new account (`newOwner`). Can only be called by the current owner."
      },
      "updateClaimAmount(uint256)": {
        "details": "update claim amount",
        "params": {
          "amount": "the amount of claim"
        }
      }
    },
    "version": 1
  },
  "userdoc": {
    "kind": "user",
    "methods": {},
    "version": 1
  }
}